{
  "_format": "hh-sol-artifact-1",
  "contractName": "SuperseedGameScores",
  "sourceName": "contracts/SuperseedGameScores.sol",
  "abi": [
    {
      "anonymous": false,
      "inputs": [
        {
          "indexed": true,
          "internalType": "address",
          "name": "player",
          "type": "address"
        },
        {
          "indexed": false,
          "internalType": "uint256",
          "name": "score",
          "type": "uint256"
        },
        {
          "indexed": false,
          "internalType": "uint256",
          "name": "timestamp",
          "type": "uint256"
        }
      ],
      "name": "ScoreUpdated",
      "type": "event"
    },
    {
      "inputs": [
        {
          "internalType": "address",
          "name": "_player",
          "type": "address"
        }
      ],
      "name": "getScore",
      "outputs": [
        {
          "internalType": "uint256",
          "name": "",
          "type": "uint256"
        }
      ],
      "stateMutability": "view",
      "type": "function"
    },
    {
      "inputs": [
        {
          "internalType": "address",
          "name": "",
          "type": "address"
        }
      ],
      "name": "playerScores",
      "outputs": [
        {
          "internalType": "uint256",
          "name": "",
          "type": "uint256"
        }
      ],
      "stateMutability": "view",
      "type": "function"
    },
    {
      "inputs": [
        {
          "internalType": "uint256",
          "name": "_score",
          "type": "uint256"
        }
      ],
      "name": "saveScore",
      "outputs": [],
      "stateMutability": "nonpayable",
      "type": "function"
    }
  ],
  "bytecode": "0x608060405234801561001057600080fd5b50610334806100206000396000f3fe608060405234801561001057600080fd5b50600436106100415760003560e01c806362550ae114610046578063d47875d014610076578063e8abdccd146100a6575b600080fd5b610060600480360381019061005b919061021b565b6100c2565b60405161006d9190610261565b60405180910390f35b610090600480360381019061008b919061021b565b6100da565b60405161009d9190610261565b60405180910390f35b6100c060048036038101906100bb91906102a8565b610122565b005b60006020528060005260406000206000915090505481565b60008060008373ffffffffffffffffffffffffffffffffffffffff1673ffffffffffffffffffffffffffffffffffffffff168152602001908152602001600020549050919050565b806000803373ffffffffffffffffffffffffffffffffffffffff1673ffffffffffffffffffffffffffffffffffffffff168152602001908152602001600020819055503373ffffffffffffffffffffffffffffffffffffffff167f91878448ef87c3db4aeb83e60e7deb1240ecae3fd04975ec93547398514cb4ed82426040516101ad9291906102d5565b60405180910390a250565b600080fd5b600073ffffffffffffffffffffffffffffffffffffffff82169050919050565b60006101e8826101bd565b9050919050565b6101f8816101dd565b811461020357600080fd5b50565b600081359050610215816101ef565b92915050565b600060208284031215610231576102306101b8565b5b600061023f84828501610206565b91505092915050565b6000819050919050565b61025b81610248565b82525050565b60006020820190506102766000830184610252565b92915050565b61028581610248565b811461029057600080fd5b50565b6000813590506102a28161027c565b92915050565b6000602082840312156102be576102bd6101b8565b5b60006102cc84828501610293565b91505092915050565b60006040820190506102ea6000830185610252565b6102f76020830184610252565b939250505056fea2646970667358221220fdee118afa20edf268e2ad5f7b7a4f866da969119271e1b6bdb9a52f402f507664736f6c63430008140033",
  "linkReferences": {},
  "deployedLinkReferences": {}
}