{
  "_format": "hh-sol-artifact-1",
  "contractName": "SuperseedGameScores",
  "sourceName": "contracts/SuperseedGameScores.sol",
  "abi": [
    {
      "anonymous": false,
      "inputs": [
        {
          "indexed": true,
          "internalType": "address",
          "name": "player",
          "type": "address"
        },
        {
          "indexed": false,
          "internalType": "uint256",
          "name": "score",
          "type": "uint256"
        },
        {
          "indexed": false,
          "internalType": "uint256",
          "name": "timestamp",
          "type": "uint256"
        }
      ],
      "name": "ScoreUpdated",
      "type": "event"
    },
    {
      "inputs": [
        {
          "internalType": "address",
          "name": "_player",
          "type": "address"
        }
      ],
      "name": "getScore",
      "outputs": [
        {
          "internalType": "uint256",
          "name": "",
          "type": "uint256"
        }
      ],
      "stateMutability": "view",
      "type": "function"
    },
    {
      "inputs": [],
      "name": "getTopScores",
      "outputs": [
        {
          "components": [
            {
              "internalType": "address",
              "name": "player",
              "type": "address"
            },
            {
              "internalType": "uint256",
              "name": "score",
              "type": "uint256"
            }
          ],
          "internalType": "struct SuperseedGameScores.Score[]",
          "name": "",
          "type": "tuple[]"
        }
      ],
      "stateMutability": "view",
      "type": "function"
    },
    {
      "inputs": [
        {
          "internalType": "address",
          "name": "",
          "type": "address"
        }
      ],
      "name": "playerScores",
      "outputs": [
        {
          "internalType": "uint256",
          "name": "",
          "type": "uint256"
        }
      ],
      "stateMutability": "view",
      "type": "function"
    },
    {
      "inputs": [
        {
          "internalType": "uint256",
          "name": "_score",
          "type": "uint256"
        }
      ],
      "name": "saveScore",
      "outputs": [],
      "stateMutability": "nonpayable",
      "type": "function"
    },
    {
      "inputs": [
        {
          "internalType": "uint256",
          "name": "",
          "type": "uint256"
        }
      ],
      "name": "topScores",
      "outputs": [
        {
          "internalType": "address",
          "name": "player",
          "type": "address"
        },
        {
          "internalType": "uint256",
          "name": "score",
          "type": "uint256"
        }
      ],
      "stateMutability": "view",
      "type": "function"
    }
  ],
  "bytecode": "0x608060405234801561001057600080fd5b50610bda806100206000396000f3fe608060405234801561001057600080fd5b50600436106100575760003560e01c80635112711a1461005c57806362550ae11461008d578063d47875d0146100bd578063e8abdccd146100ed578063ee5c4e5d14610109575b600080fd5b61007660048036038101906100719190610806565b610127565b604051610084929190610883565b60405180910390f35b6100a760048036038101906100a291906108d8565b61017b565b6040516100b49190610905565b60405180910390f35b6100d760048036038101906100d291906108d8565b610193565b6040516100e49190610905565b60405180910390f35b61010760048036038101906101029190610806565b6101db565b005b61011161027b565b60405161011e9190610a1c565b60405180910390f35b6001818154811061013757600080fd5b90600052602060002090600202016000915090508060000160009054906101000a900473ffffffffffffffffffffffffffffffffffffffff16908060010154905082565b60006020528060005260406000206000915090505481565b60008060008373ffffffffffffffffffffffffffffffffffffffff1673ffffffffffffffffffffffffffffffffffffffff168152602001908152602001600020549050919050565b806000803373ffffffffffffffffffffffffffffffffffffffff1673ffffffffffffffffffffffffffffffffffffffff16815260200190815260200160002081905550610228338261033a565b3373ffffffffffffffffffffffffffffffffffffffff167f91878448ef87c3db4aeb83e60e7deb1240ecae3fd04975ec93547398514cb4ed8242604051610270929190610a3e565b60405180910390a250565b60606001805480602002602001604051908101604052809291908181526020016000905b8282101561033157838290600052602060002090600202016040518060400160405290816000820160009054906101000a900473ffffffffffffffffffffffffffffffffffffffff1673ffffffffffffffffffffffffffffffffffffffff1673ffffffffffffffffffffffffffffffffffffffff1681526020016001820154815250508152602001906001019061029f565b50505050905090565b6000805b600180549050811015610437578373ffffffffffffffffffffffffffffffffffffffff166001828154811061037657610375610a67565b5b906000526020600020906002020160000160009054906101000a900473ffffffffffffffffffffffffffffffffffffffff1673ffffffffffffffffffffffffffffffffffffffff16036104245760019150600181815481106103db576103da610a67565b5b90600052602060002090600202016001015483111561041f57826001828154811061040957610408610a67565b5b9060005260206000209060020201600101819055505b610437565b808061042f90610ac5565b91505061033e565b50806104e757600160405180604001604052808573ffffffffffffffffffffffffffffffffffffffff16815260200184815250908060018154018082558091505060019003906000526020600020906002020160009091909190915060008201518160000160006101000a81548173ffffffffffffffffffffffffffffffffffffffff021916908373ffffffffffffffffffffffffffffffffffffffff1602179055506020820151816001015550505b60005b600180805490506104fb9190610b0d565b81101561075c5760006001826105119190610b41565b90505b600180549050811015610748576001818154811061053557610534610a67565b5b9060005260206000209060020201600101546001838154811061055b5761055a610a67565b5b90600052602060002090600202016001015410156107355760006001838154811061058957610588610a67565b5b90600052602060002090600202016040518060400160405290816000820160009054906101000a900473ffffffffffffffffffffffffffffffffffffffff1673ffffffffffffffffffffffffffffffffffffffff1673ffffffffffffffffffffffffffffffffffffffff16815260200160018201548152505090506001828154811061061857610617610a67565b5b90600052602060002090600202016001848154811061063a57610639610a67565b5b90600052602060002090600202016000820160009054906101000a900473ffffffffffffffffffffffffffffffffffffffff168160000160006101000a81548173ffffffffffffffffffffffffffffffffffffffff021916908373ffffffffffffffffffffffffffffffffffffffff1602179055506001820154816001015590505080600183815481106106d1576106d0610a67565b5b906000526020600020906002020160008201518160000160006101000a81548173ffffffffffffffffffffffffffffffffffffffff021916908373ffffffffffffffffffffffffffffffffffffffff16021790555060208201518160010155905050505b808061074090610ac5565b915050610514565b50808061075490610ac5565b9150506104ea565b50600560018054905011156107c657600180548061077d5761077c610b75565b5b6001900381819060005260206000209060020201600080820160006101000a81549073ffffffffffffffffffffffffffffffffffffffff02191690556001820160009055505090555b505050565b600080fd5b6000819050919050565b6107e3816107d0565b81146107ee57600080fd5b50565b600081359050610800816107da565b92915050565b60006020828403121561081c5761081b6107cb565b5b600061082a848285016107f1565b91505092915050565b600073ffffffffffffffffffffffffffffffffffffffff82169050919050565b600061085e82610833565b9050919050565b61086e81610853565b82525050565b61087d816107d0565b82525050565b60006040820190506108986000830185610865565b6108a56020830184610874565b9392505050565b6108b581610853565b81146108c057600080fd5b50565b6000813590506108d2816108ac565b92915050565b6000602082840312156108ee576108ed6107cb565b5b60006108fc848285016108c3565b91505092915050565b600060208201905061091a6000830184610874565b92915050565b600081519050919050565b600082825260208201905092915050565b6000819050602082019050919050565b61095581610853565b82525050565b610964816107d0565b82525050565b604082016000820151610980600085018261094c565b506020820151610993602085018261095b565b50505050565b60006109a5838361096a565b60408301905092915050565b6000602082019050919050565b60006109c982610920565b6109d3818561092b565b93506109de8361093c565b8060005b83811015610a0f5781516109f68882610999565b9750610a01836109b1565b9250506001810190506109e2565b5085935050505092915050565b60006020820190508181036000830152610a3681846109be565b905092915050565b6000604082019050610a536000830185610874565b610a606020830184610874565b9392505050565b7f4e487b7100000000000000000000000000000000000000000000000000000000600052603260045260246000fd5b7f4e487b7100000000000000000000000000000000000000000000000000000000600052601160045260246000fd5b6000610ad0826107d0565b91507fffffffffffffffffffffffffffffffffffffffffffffffffffffffffffffffff8203610b0257610b01610a96565b5b600182019050919050565b6000610b18826107d0565b9150610b23836107d0565b9250828203905081811115610b3b57610b3a610a96565b5b92915050565b6000610b4c826107d0565b9150610b57836107d0565b9250828201905080821115610b6f57610b6e610a96565b5b92915050565b7f4e487b7100000000000000000000000000000000000000000000000000000000600052603160045260246000fdfea2646970667358221220e8d07fb45622453c9be2b57a6ea09416a14036417c82b976d144a95a66758f6b64736f6c63430008140033",
  "linkReferences": {},
  "deployedLinkReferences": {}
}